:20000000022459EF600EC2AF905028E04404F0E054EF8008C2AF905028E054FBF0D2AF228D
:2000200022000002167DE4F5BFF5A875B28075B303F5B4F5B5F5B675C34775C25675C18C36
:20004000F5C075BF0375BF017E227FDDFD1223A27E227F930D1223A27E137FC20D1223A263
:200060007E157F200D1223A27E1B7FE40D1223A27596FC7595A0759480E4F593F59D759C41
:2000800003F59B759A03759203E59120E0FBE4F5927596FC7595A0759481F593F59DF59CEF
:2000A000F59B759A01759203E59120E0FBE4F5927596FC759580759420759318F59DF59CBD
:2000C000759B05759A55759203E59120E0FBE4F5927596FC759580759421759304F59D75F3
:2000E0009C1FF59BF59A759203E59120E0FBE4F5927596FC759580759420759330759D0834
:20010000F59CF59BF59A759203E59120E0FBE4F5927596FC75958075942075934090503037
:20012000E0F59D905030E0A3E0F59CA3E0F59B905032E0A3E0F59A759203E59120E0FBE4D3
:20014000F5927596FC7595A0759430759308F59DF59CF59BF59A759203E59120E0FBE4F588
:20016000927596FC7595A075943075930CF59DF59CF59B759A01759203E59120E0FBE4F5D8
:20018000927596FC7595A0759430759318905034E0F59D905034E0A3E0F59CA3E0F59B9092
:2001A0005036E0A3E0F59A759203E59120E0FBE4F5927596FC7595A0759430F5939050345B
:2001C000E0F59D905034E0A3E0F59CA3E0F59B905036E0A3E0F59A759203E59120E0FBE42B
:2001E000F5927596FC7595A0759430759308F59DF59CF59B759AE2759203E59120E0FBE47B
:20020000F5927596FC7595A0759430759328F59DF59CF59BF59A759203E59120E0FBE4F5A7
:20022000927596FC7595A075943075932CF59DF59CF59B759A01759203E59120E0FBE4F5F7
:20024000927596FC7595A0759430759320905038E0F59D905038E0A3E0F59CA3E0F59B90C1
:20026000503AE0A3E0F59A759203E59120E0FBE4F5927596FC7595A0759430759338905012
:2002800038E0F59D905038E0A3E0F59CA3E0F59B90503AE0A3E0F59A759203E59120E0FB0E
:2002A000E4F5927596FC7595A0759430759328F59DF59CF59B759AE2759203E59120E0FB9A
:2002C000E4F5927596FC7595A07594907593C0F59DF59CF59B759A01759203E59120E0FB63
:2002E000E4F5927593D0F59DF59CF59BF59A759203E59120E0FBE4F5927593CCF59DF59C9C
:20030000F59B759AB9759203E59120E0FBE4F5927593E0F59DF59CF59B759A01759203E505
:200320009120E0FBE4F5927593D4F59DF59CF59B759A01759203E59120E0FBE4F592759636
:20034000FC7595A075948175932090503CE0F59D90503CE0A3E0F59CA3E0F59B90503EE096
:20036000A3E0F59A759203E59120E0FBE4F5927596FC7595A0759481759324905040E0F529
:200380009D905040E0A3E0F59CA3E0F59B905042E0A3E0F59A759203E59120E0FBE4F5929F
:2003A0007596FC7595A0759481759328905044E0F59D905044E0A3E0F59CA3E0F59B905031
:2003C00046E0A3E0F59A759203E59120E0FBE4F5927596FC7595A075948175932C90504868
:2003E000E0F59D905048E0A3E0F59CA3E0F59B90504AE0A3E0F59A759203E59120E0FBE4E1
:20040000F5927596FC7595A075948175933490504CE0F59D90504CE0A3E0F59CA3E0F59B0D
:2004200090504EE0A3E0F59A759203E59120E0FBE4F5927596FC7595A075948175936C9077
:200440005050E0F59D905050E0A3E0F59CA3E0F59B905052E0A3E0F59A759203E59120E0AF
:20046000FBE4F5927596FC7595A0759481759370905054E0F59D905054E0A3E0F59CA3E012
:20048000F59B905056E0A3E0F59A759203E59120E0FBE4F5927596FC7595A075948175937B
:2004A00074905058E0F59D905058E0A3E0F59CA3E0F59B90505AE0A3E0F59A759203E59133
:2004C00020E0FBE4F5927596FC7595A075948175937890505CE0F59D90505CE0A3E0F59C1D
:2004E000A3E0F59B90505EE0A3E0F59A759203E59120E0FBE4F5927596FC7595A075948198
:20050000759380905060E0F59D905060E0A3E0F59CA3E0F59B905062E0A3E0F59A7592031C
:20052000E59120E0FBE4F5927596FC7595A0759481759390905050E0F59D905050E0A3E0D7
:20054000F59CA3E0F59B905052E0A3E0F59A759203E59120E0FBE4F5927596FC7595A075C7
:200560009481759394905054E0F59D905054E0A3E0F59CA3E0F59B905056E0A3E0F59A754C
:200580009203E59120E0FBE4F5927596FC7595A0759481759398905058E0F59D905058E04D
:2005A000A3E0F59CA3E0F59B90505AE0A3E0F59A759203E59120E0FBE4F5927596FC7595F1
:2005C000A075948175939C90505CE0F59D90505CE0A3E0F59CA3E0F59B90505EE0A3E0F5C6
:2005E0009A759203E59120E0FBE4F5927596FC7595A07594817593A4905060E0F59D905002
:2006000060E0A3E0F59CA3E0F59B905062E0A3E0F59A759203E59120E0FBE4F5927596FC52
:200620007595A0759482759320F59D759C0F759BF6759A9F759203E59120E0FBE4F592759C
:2006400096FC7595A0759482759324F59D759C0F759BF6759A9F759203E59120E0FBE4F5ED
:20066000927596FC7595A0759482759328F59D759C0F759BF6759A9F759203E59120E0FB9B
:20068000E4F5927596FC7595A075948275932CF59D759C0F759BF6759A9F759203E5912079
:2006A000E0FBE4F59275A890F510851881227596FC759580759423759318E4F59DF59CF529
:2006C0009B759A01759203E59120E0FBE4F592759201E59130E1FBE4F59275B18075B100C8
:2006E00075820274782DF583E0FE7582047596FC7595D0759400759370E0F59DA3E0F59CAF
:20070000A3E0F59BA3E0F59A759203E59120E0FBE4F592A3759374E0F59DA3E0F59CA3E0A6
:20072000F59BA3E0F59A759203E59120E0FBE4F592A3759378E0F59DA3E0F59CA3E0F59B75
:20074000A3E0F59A759203E59120E0FBE4F592A375937CE0F59DA3E0F59CA3E0F59BA3E05E
:20076000F59A759203E59120E0FBE4F592A3759320E0F59DA3E0F59CA3E0F59BA3E0F59A8E
:20078000759203E59120E0FBE4F592EE30E10B7595A075948075932880097595A075948248
:2007A000759394A3E0F59DA3E0F59CA3E0F59BA3E0F59A759203E59120E0FBE4F59275955F
:2007C00080759423759318759201E59130E1FBE4F592E5A130E23CE4F59DF59CF59BF59A5E
:2007E000759203E59120E0FBE4F592759422759308759A01759203E59120E0FBE4F592F5ED
:200800009A759203E59120E0FBE4F592905008E0A3F02230E1B175942475930C759201E5EB
:200820009130E1FBE4F592E5A230E4F07595A07594827593907401F59A759203E59120E0D4
:20084000FBE4F592759480759304759201E59130E1FBE4F592E5A330E0F0EE30E1377593E2
:2008600028759201E59130E1FBE4F592E5A430E2F0759330759A03759203E59120E0FBE427
:20088000F5927593AC759A00759203E59120E0FBE4F5928011759330759A00759203E591D0
:2008A00020E0FBE4F592EE30E205759CF38003759C737595D0759404759310759D03759B9E
:2008C00070759A00759203E59120E0FBE4F592759408759203E59120E0FBE4F592759404AF
:2008E000759304759201E59130E1FBE4F592E5A3F9EE30E051E930E125759404E4F59DF590
:200900009CF59BF59A759203E59120E0FBE4F592759408759203E59120E0FBE4F592759436
:2009200004E4F59DF59CF59B759A17759203E59120E0FBE4F592759408759203E59120E07F
:20094000FBE4F5928051E920E126759404E4F59D759C02F59BF59A759203E59120E0FBE43C
:20096000F592759408759203E59120E0FBE4F592759404E4F59D759C02F59B759A137592AA
:2009800003E59120E0FBE4F592759408759203E59120E0FBE4F59275940875930C75920154
:2009A000E59130E1FBE4F592E5A130E0F0759404759201E59130E1FBE4F592E5A130E0F03C
:2009C0007595A0759480759308E4F59D759C01F59BF59A759203E59120E0FBE4F59275933F
:2009E00004759201E59130E1FBE4F592E5A330E1ED759308E4F59D759C02F59BF59A7592B9
:200A000003E59120E0FBE4F5927596FC759580759423759318E4F59DF59CF59BF59A7592ED
:200A200003E59120E0FBE4F592759422759308759A01759203E59120E0FBE4F5927592019E
:200A4000E59130E1FBE4F592759A00759203E59120E0FBE4F59275942475930C759201E586
:200A60009130E1FBE4F592E5A220E4BDEDFFEE30E101227595A0759480759328759201E5C8
:200A80009130E1FBE4F59285A49D85A39C85A29BE5A1C2E0F59A759203E59120E0FBE4F5F7
:200AA0009222EF30E40520E50281687596FD75955175941F7593B0759DC5759CAC759BCED5
:200AC000759A55759203E59120E0FBE4F59275941CF593F59DF59CF59B759A03759203E56B
:200AE0009120E0FBE4F592759414759A8A759203E59120E0FBE4F592759304759A8B7592B6
:200B000003E59120E0FBE4F59275941E759A27759203E59120E0FBE4F592DD0281617594E9
:200B20003F7593B0759DC5759CAC759BCE759A55759203E59120E0FBE4F59275943CF59335
:200B4000F59DF59CF59B759A03759203E59120E0FBE4F592759434759A8A759203E5912074
:200B6000E0FBE4F592759304759A8B759203E59120E0FBE4F59275943E759A27759203E537
:200B80009120E0FBE4F592DD02816175945F7593B0759DC5759CAC759BCE759A557592039D
:200BA000E59120E0FBE4F59275945CF593F59DF59CF59B759A03759203E59120E0FBE4F553
:200BC00092759454759A8A759203E59120E0FBE4F592759304759A8B759203E59120E0FB86
:200BE000E4F59275945E759A27759203E59120E0FBE4F592DD02816175947F7593B0759DF4
:200C0000C5759CAC759BCE759A55759203E59120E0FBE4F59275947CF593F59DF59CF59B6A
:200C2000759A03759203E59120E0FBE4F592759474759A8A759203E59120E0FBE4F592754B
:200C40009304759A8B759203E59120E0FBE4F59275947E759A27759203E59120E0FBE4F56C
:200C600092EFD2E4C2E5FF229050807596FD759551759410759300759201E4F59DF59CF58D
:200C80009BF59AE59130E1FBE4F592759203A8A3A9A2E59120E0FBE4F592759304759201AD
:200CA000E59130E1FBE4F592759203C3E935A2F0A3E835A3F0A3E59120E0FBE4F592DD0219
:200CC000A196759430759300759201E59130E1FBE4F592759203A8A3A9A2E59120E0FBE4B2
:200CE000F592759304759201E59130E1FBE4F592759203C3E935A2F0A3E835A3F0A3E59183
:200D000020E0FBE4F592DD02A196759450759300759201E59130E1FBE4F592759203A8A3AC
:200D2000A9A2E59120E0FBE4F592759304759201E59130E1FBE4F592759203C3E935A2F00E
:200D4000A3E835A3F0A3E59120E0FBE4F592DD02A196759470759300759201E59130E1FBA0
:200D6000E4F592759203A8A3A9A2E59120E0FBE4F592759304759201E59130E1FBE4F5928B
:200D8000759203C3E935A2F0A3E835A3F0A3E59120E0FBE4F592EFD2E5FF2275820474705E
:200DA0002BF5837596FC7595A0759480759340759201E59130E1FBE4F5927594817593582F
:200DC000E0F59DA3E0F59CA3E0F59BA3E0F59AE5A17003439CE0759203E59120E0FBE4F55C
:200DE0009275935CA3E0F59DA3E0F59CA3E0F59BA3E0F59AF9759203E59120E0FBE4F592D0
:200E0000A37594827593ECE0F59DA3E0F59CA3E0F59BA3E0F59A759203E59120E0FBE4F5B1
:200E20009275948375930C759203E59120E0FBE4F592A3759481759368E0F59DA3E0F59C77
:200E4000A3E0F59BA3E0F59A759203E59120E0FBE4F59275938C759203E59120E0FBE4F59F
:200E600092A375937CE0F59DA3E0F59CA3E0F59BA3E0F59A759203E59120E0FBE4F59275B3
:200E800093A0759203E59120E0FBE4F592759360E4F59DF59CF59BF59A759203E59120E02B
:200EA000FBE4F592759480759308759A02759203E59120E0FBE4F59275930C759201E591AA
:200EC00030E1FBE4F592E5A4540370EFE5A370EBE5A254C070E57595C075940075934475F5
:200EE0009201E59130E1FBE4F592E5A1F8D3995035E82402F59AF8D399500D759203E59125
:200F000020E0FBE4F59280E97595A0759481759354759A01759203E59120E0FBE4F592E597
:200F2000BA30E6FBE1E57595A075948175935C759201E59130E1FBE4F59285A49D85A39C09
:200F400085A29B889A759203E59120E0FBE4F592759354759A00759203E59120E0FBE4F508
:200F600092E5BA30E6FB7595C0759400759344E4F59DF59CF59BE89402F59AF8D399400DBB
:200F8000759203E59120E0FBE4F59280E97595A075948175935C759201E59130E1FBE4F507
:200FA0009285A49D85A39C85A29B899A759203E59120E0FBE4F592759480759308F59DF52A
:200FC0009CF59B759A02759203E59120E0FBE4F592759481759354759A00759203E5912059
:200FE000E0FBE4F592EFD2E6C2E430E315D2E7FF759360759A0F759203E59120E0FBE4F5A4
:201000009222FF2274602BF5837582047596FC7595A0759481759308E0F59DA3E0F59CA315
:20102000E0F59BA3E0F59A759203E59120E0FBE4F59275930CA3E0F59DA3E0F59CA3E0F593
:201040009BA3E0F59A759203E59120E0FBE4F592759310A3E0F59DA3E0F59CA3E0F59BA306
:20106000E0F59AF9759203E59120E0FBE4F592A37594827593ACE0F59DA3E0F59CA3E0F542
:201080009BA3E0F59A759203E59120E0FBE4F5927593CC759203E59120E0FBE4F592A375EB
:2010A000948175931CE0F59DA3E0F59CA3E0F59BA3E0F59A759203E59120E0FBE4F592A3C3
:2010C000759330E0F59DA3E0F59CA3E0F59BA3E0F59A759203E59120E0FBE4F592759481BD
:2010E000759314E4F59DF59CF59BF59A759203E59120E0FBE4F592759480759308759A011F
:20110000759203E59120E0FBE4F59275930C759201E59130E1FBE4F592E5A2543F70EF75F2
:2011200095C0759400759334759201E59130E1FBE4F592E5A1F8D3995030E82402F59AF821
:20114000D399500D759203E59120E0FBE4F592213A7595A0759481759304759A017592032B
:20116000E59120E0FBE4F592412D7595A0759481759310759201E59130E1FBE4F59285A4BB
:201180009D85A39C85A29B889A759203E59120E0FBE4F592759481759304759A0075920375
:2011A000E59120E0FBE4F592E5BA30E4FB7595C0759400759334E4F59DF59CF59BE8940281
:2011C000F59AF8D399400D759203E59120E0FBE4F59280E97595A07594817593107592012C
:2011E000E59130E1FBE4F59285A49D85A39C85A29B899A759203E59120E0FBE4F5927594A4
:2012000080759308E4F59DF59CF59B759A01759203E59120E0FBE4F59275948175930475A6
:201220009A00759203E59120E0FBE4F592EFD2E6C2E430E315D2E7FF759314759A037592CC
:2012400003E59120E0FBE4F59222FF22EF30E05B905800E0905010F0905801E0905011F0C0
:20126000905802E0905012F0905010E0FE905001E0C39E50059050108010905011E0FE909E
:201280005001E0D39E4008905011E0905001F090502CE030E115905012E0FE905001E0D34C
:2012A0009E4008905012E0905001F0EF30E15B905804E0905014F0905805E0905015F09058
:2012C0005806E0905016F0905014E0FE905005E0C39E50059050148010905015E0FE905066
:2012E00005E0D39E4008905015E0905005F090502CE030E115905016E0FE905005E0D39E8A
:201300004008905016E0905005F0EF30E25B905808E0905018F0905809E0905019F0905824
:201320000AE090501AF0905018E0FE905009E0C39E50059050188010905019E0FE9050093C
:20134000E0D39E4008905019E0905009F090502CE030E11590501AE0FE905009E0D39E40DE
:201360000890501AE0905009F0EF30E35490580CE090501CF090580DE090501DF090580EE4
:20138000E090501EF0C2AF7596FC7595A07594907593CCE0E4FCFDFEFF781812234C8F9DF9
:2013A000E0E4FCFDFEFF781012235F8F9CE0E4F59BE0F59A759203E59120E0FBE4F592D2B1
:2013C000AF22905020E030E614E5BA30E40AC2AFE054BFF0D2AF80051223C980E5905020B8
:2013E000E030E266E030E562905000E0FF905021E0FD1221A4905001EFF0C2AF905020E0B9
:2014000054DFF0D2AF905011E0FF905001E0D39F40059050118010905010E0FF905001E0CF
:20142000C39F5008905010E0905001F0905013E0FF905001E0B50712905021E0D394024066
:2014400009905013E014905001F090502CE030E121905000E0FFA3E0D39F4006905000E0F3
:20146000A3F0905012E0FF905001E0D39F4003E014F090501FE0FF90500BE0C39F501590AE
:20148000502DE0FF905001E0C39F500890502DE0905001F0905068E0FF905001E0C39F402D
:2014A0001B905069E0FF905004E09F400F905068E0D394014006E014905001F0905064E078
:2014C000FF905001E0C39F4013E0FF905000E06F600A905065E090502FF0800590502FE483
:2014E000F0905001E0FF905000E06F602DC2AF905020E030E01CE0FF905000E0FDA3E0FBE9
:20150000121004905020EFF0905001E0905000F08006905000E0A3F0D2AF1223C90213C206
:20152000905024E030E614E5BA30E60AC2AFE054BFF0D2AF80051223C980E5905024E0300D
:20154000E243E030E53F905004E0FF122223905005EFF0C2AF905024E054DFF0D2AF90507B
:2015600015E0FF905005E0D39F40059050158010905014E0FF905005E0C39F500890501430
:20158000E0905005F090502CE030E115905016E0FF905005E0D39F4008905016E090500575
:2015A000F090501FE0FF90500BE0C39F501590502EE0FF905005E0C39F500890502EE090E1
:2015C0005005F0905005E0FF905004E06F7003021677C2AF905024E020E00302166F90500E
:2015E00017E0FF905005E0C39F402C905017E0FF905004E09F50207596FC7595C0E4F5947B
:2016000075936CF59DF59CF59B759A35759203E59120E0FBE4F592905024E0FF905004E0D2
:20162000FDA3E0FB120D9B905024EFF0905017E0FF905004E0C39F402C905017E0FF905074
:2016400005E09F50207596FC7595C0E4F59475936CF59DF59CF59B759A34759203E591204E
:20166000E0FBE4F592905005E0905004F08006905004E0A3F0D2AF1223C9021520C0E0C098
:20168000F0C083C082C0D075D008E5BA30E02F7596FC7595A075943075930C759203E5919C
:2016A00020E0FB759200905020E030E011E030E20DE0FFA3E0FD120AA2905020EFF0E5BA8D
:2016C00030E16C7596FC7595A075943075932C759203E59120E0FB759200905024E030E0F9
:2016E0000EE030E20AE0FF121D99905024EFF0905028E030E00EE030E20AE0FF121CC190F6
:201700005028EFF090502CE030E0247596FC7595A07594907593EC759201E59130E1FB7515
:20172000920090500BE5A1F090502CE04420F0E5B930E7737596FC7595A075949175937883
:20174000759201E59130E1FB759200E5A1540F7056E5B9540F75F003A4241CF582E434234A
:20176000F583740193FA740293F91223737596FC7595A0759491759370759D00759C0075EA
:201780009B00759A0F759203E59120E0FB759200759201E59130E1FB75920085B9B175B168
:2017A0000085B9BE75BE00D0D0D082D083D0F0D0E032905020E030E7377596FC7595A075BF
:2017C0009481759314E4F59DF59CF59BF59A759203E59120E0FBE4F59275948075930C75BA
:2017E0009201E59130E1FBE4F592E5A2543F70EF9050217401F07596FC7595807594247557
:201800009310759D07759CC0E4F59BF59A759203E59120E0FBE4F5927596FC7595A0759498
:20182000827593A0F59DF59CF59B759A04759203E59120E0FBE4F5927593C0759A067592EE
:2018400003E59120E0FBE4F5927596FC759580759424759314759D04759C40F59BF59A75D4
:201860009203E59120E0FBE4F592905020E030E340E5BA30E43B7596FC7595A07594817526
:201880009304E4F59DF59CF59B759A01759203E59120E0FBE4F592759314759A03759203EC
:2018A000E59120E0FBE4F592905020E04481F08007905020E04401F0905028E04401F022DC
:2018C000905020E030E7377596FC7595A0759481759314E4F59DF59CF59BF59A759203E56E
:2018E0009120E0FBE4F59275948075930C759201E59130E1FBE4F592E5A2543F70EF905006
:20190000217402F07596FC759580759424759310759D07759CC0E4F59BF59A759203E591FD
:2019200020E0FBE4F5927596FC7595A07594827593A0F59DF59CF59BF59A759203E591207B
:20194000E0FBE4F5927593C0759A06759203E59120E0FBE4F5927596FC759580759424754B
:201960009314759D04759CC0F59BF59A759203E59120E0FBE4F592905020E030E340E5BA02
:2019800030E43B7596FC7595A0759481759304E4F59DF59CF59B759A01759203E59120E08A
:2019A000FBE4F592759314759A03759203E59120E0FBE4F592905020E04481F080079050B1
:2019C00020E04401F0905028E04401F022905020E030E7377596FC7595A07594817593140E
:2019E000E4F59DF59CF59BF59A759203E59120E0FBE4F59275948075930C759201E5913090
:201A0000E1FBE4F592E5A2543F70EF9050217403F07596FC759580759424759310759D07AF
:201A2000759CC0E4F59BF59A759203E59120E0FBE4F5927596FC7595A07594827593A0F513
:201A40009DF59CF59BF59A759203E59120E0FBE4F5927593C0759A04759203E59120E0FBFD
:201A6000E4F5927596FC759580759424759314759D05759CC0F59BF59A759203E59120E09A
:201A8000FBE4F592905020E030E340E5BA30E43B7596FC7595A0759481759304E4F59DF50D
:201AA0009CF59B759A01759203E59120E0FBE4F592759314759A03759203E59120E0FBE477
:201AC000F592905020E04481F08007905020E04401F0905028E04401F022905020E030E718
:201AE000377596FC7595A0759481759314E4F59DF59CF59BF59A759203E59120E0FBE4F5DE
:201B00009275948075930C759201E59130E1FBE4F592E5A2543F70EF9050217404F07596B4
:201B2000FC759580759424759310759D07759CC0E4F59BF59A759203E59120E0FBE4F59207
:201B40007596FC7595A07594827593A0F59DF59CF59BF59A759203E59120E0FBE4F5927504
:201B600093C0759203E59120E0FBE4F5927596FC759580759424759314759D07759CC0F573
:201B80009BF59A759203E59120E0FBE4F592905020E030E340E5BA30E43B7596FC7595A063
:201BA000759481759304E4F59DF59CF59B759A01759203E59120E0FBE4F592759314759AD7
:201BC00003759203E59120E0FBE4F592905020E04481F08007905020E04401F0905028E003
:201BE0004401F022905028E030E279E030E575905008E0FF122073905009EFF0C2AF90502C
:201C000028E054DFF0D2AF90502FE0FF905009E0D39F500D90502FE0905009F0905079E48D
:201C2000F0905019E0FF905009E0D39F40059050198010905018E0FF905009E0C39F500879
:201C4000905018E0905009F090502CE030E11590501AE0FF905009E0D39F400890501AE08B
:201C6000905009F0905009E0FF905008E06F604B905028E030E03EC2AF7596FC7595A07514
:201C80009491759378759201E59130E1FBE4F592E5A1540F701BE5B97017905008E0FFA3A7
:201CA000E0FD1206AE905008EFF0905028E054EFF0D2AF8006905008E0A3F01223C9021B22
:201CC000E4EF30E40520E502A11E7596FC7595D0759402759360E4759D70F59CF59BF59AE8
:201CE000759203E59120E0FBE4F592F59D759364759203E59120E0FBE4F5927593687592A3
:201D000003E59120E0FBE4F59275936C759203E59120E0FBE4F592EFD2E4C2E5FF2290503D
:201D2000D07596FC7595D0759402759364759201E4F59DF59CF59BF59AE59130E1FBE4F5F2
:201D400092759203A8A3A9A2E59120E0FBE4F592759368759201E59130E1FBE4F592759209
:201D600003C3E935A2F0A3E835A3F0A3E59120E0FBE4F59275936C759201E59130E1FBE439
:201D8000F592759203E5A3F0A3E5A4F0E59120E0FBE4F592EFD2E5FF227596FC7595A07555
:201DA0009491759370E4F59DF59CF59B759AF0759203E59120E0FBE4F59275937875920182
:201DC000E59130E1FBE4F592E5A154F064F07009EF30E40B20E508C105EFC2E4C2E522E45C
:201DE0007596FAF595F594759378F59DF59CF59BF59A759203E59120E0FBE4F592EFD2E47E
:201E0000C2E5FFC13DE47596FAF595F5947593789050C0759201E4F59DF59CF59BF59AE5EF
:201E20009130E1FBE4F592759203E5A2F0A3E5A3F0E59120E0FBE4F592EFD2E5FF7596FC76
:201E40007595A0759491759374E4F59DF59CF59B759AF0759203E59120E0FBE4F592229094
:201E600050217401F0905020E020E703021EED7596FC7595A0759481759314E4F59DF59C37
:201E8000F59BF59A759203E59120E0FBE4F59275948075930C759201E59130E1FBE4F592AB
:201EA000E5A2543F70EFE5A1540F70E9759310759201E59130E1FBE4F592AFA17596FC758E
:201EC00095C0F594759334759201E59130E1FBE4F592E5A12402FEEEC39F50118E9A759269
:201EE00003E59120E0FBE4F5920E0E80EA905020E0544EF0905028E054CEF07596FC759500
:201F0000A075948075930C759201E59130E1FBE4F592E5A1540F70EF22C2AFE4F5BF759611
:201F2000FC7595A0759481759314F59DF59CF59BF59A759203E59120E0FBE4F592759360C5
:201F4000759203E59120E0FBE4F592759350759203E59120E0FBE4F5927596FC7595A07537
:201F60009480759308759DFF759CFF759BFF759AFF759203E59120E0FBE4F5927596FC759D
:201F800095A075948075930C759201E59130E1FBE4F592E5A45403FFEF70EDE5A370E9E589
:201FA000A270E5E5A170E1905020E0543EF0905024E0543EF0905028E054FEF075B181E4D6
:201FC000F5B1E5B160FC22EF30E34F30E00EC2AF905024E04404F0E054EF8008C2AF90504F
:201FE00024E054FBF0D2AFEF30E107C2AF905024804E905024E05477F0C2AF7596FC7595B2
:20200000A0759481759360E4F59DF59CF59BF59A759203E59120E0FB8053EF30E00EC2AF3C
:20202000905020E04404F0E054EF8008C2AF905020E054FBF0D2AFEF30E10CC2AF9050204F
:20204000E04408F0D2AF22905020E05477F0C2AF7596FC7595A0759481759314E4F59DF5F3
:202060009CF59BF59A759203E59120E0FBE4F592D2AF229050D0E0F9A3E0F8A3E0FBA3E017
:20208000FA90500CE02420F582EF2478F583E0FCA3E0FEE9D39EE89C401DE5822407F5821B
:2020A000E0FEA3E0FC905078E004F0D39C5004A3E4F022EEFF805DA3E0FCA3E0FEEBD39E15
:2020C000EA9C401DE5822405F582E0FEA3E0FC905078E004F0D39C5004A3E4F022EEFF80C4
:2020E00033A3E0FCA3E0D399EC984028A3E0FCA3E0D39BEC9A401DE5822403F582E0FEA37A
:20210000E0FC905079E004F0D39C5006758278E4F022EEFF905078E4F0A3F022905024E0DA
:2021200030E7207596FC7595A0759481759360E4F59DF59CF59BF59A759203E59120E0FB24
:20214000E4F592905024E0544EF07596FC7595A075948075930C759201E59130E1FBE4F5ED
:2021600092E5A45403FFEF70EDE5A370E9E5A254C070E3E5A154F070DD905006E090500412
:20218000F0A3F07596FC7595A0759481759350E4F59DF59CF59BF59A759203E59120E0FB88
:2021A000E4F59222E4F8F9905080E0FBA3E0FAEBD399EA984004EBF9EAF8A3DDED90500CC9
:2021C000E02420F582EF2460F583E0FAA3E0FBE9D39BE89A401DE5822407F582E0FEA3E081
:2021E000FC905070E004F0D39C5004A3E4F022EEFF8028A3E0FAA3E0D399EA98401DE5821C
:202200002407F582E0FEA3E0FC905071E004F0D39C5006758270E4F022EEFF905070E4F067
:20222000A3F0229050C0E0F9A3E0F890500CE02420F582EF2470F583E0FAA3E0FBE9D39BC4
:20224000E89A401DE5822407F582E0FEA3E0FC905074E004F0D39C5004A3E4F022EEFF8048
:202260002AA3E0FAA3E0D399EA98401FE5822407F582E0FEA3E0FC905075E004F0D39C5099
:2022800006758274E4F022EEFF8000905074E4F0A3F02290502CE030E53EE030E117905066
:2022A0001CE0FF90500BE0C39F5022C2AF90502CE054FD801590501DE0FF90500BE0D39F28
:2022C000400BC2AF90502CE04402F0D2AFC2AF90502CE054DFF0D2AF1223C980B6E5B9606C
:2022E00030E5B920E72BE5B9540FFFE5B9C4540F75F003A4242BF582E43424F5837401938B
:20230000FA740293F5828A8312237785B9BEE4F5BE75BF0375BF011223C980C1FF0020FF2E
:202320001F19FF2379FF211CFF17B2FF18C0FF19CDFF1ADAFF1E5FFF0020FF0020FF00203E
:20234000FF0020FF0020FF0020FF0020E8600FECC313FCED13FDEE13FEEF13FFD8F122E81C
:202360006010ECA2E713FCED13FDEE13FEEF13FFD8F0228A838982E4737596FC7595A075ED
:202380009481759350E4F59DF59CF59B759A01759203E59120E0FBE4F592905024E044011A
:2023A000F022EDC43354E02431FC74182DF8A604AC07EDC43354E02430F8A604AF06EDC420
:2023C0003354E02431F8A6072274182510F8A6810510E510B40503E4F51074182510F8E64C
:2023E000F58122905010E0FEEFC39E400DA3E0FEEFD39E5005905001EFF022905014E0FEF0
:20240000EFC39E400DA3E0FEEFD39E5005905005EFF022905018E0FEEFC39E400DA3E0FE0F
:20242000EFD39E5005905009EFF022FF124CFF23E3FF23FBFF2413FF2465FF1FC7FF0003D9
:20244000FF2443EF6009C2AF90502C74018006C2AF90502CE4F0D2AF22787FE4F6D8FD7537
:2024600081CF02002690500CEFF022000000000000000000000000000000000000000000F7
:2024800000000000000000000000000000000000000000000000000000000000000000003C
:2024A00000000000000000000000000000000000000000000000000000000000000000001C
:2024C0000000000000000000000000000000000000000000000000000000000000000000FC
:2024E0000000000000000000000000000000000000000000000000000000000000000000DC
:2050000001010000000000000202000000000000000501070003010300020200A0ACB9531A
:205020000C0400000C000000050000000101020000000020000019640004F5885543321152
:205040000A998776554332110A99877600000004554332110A998776554332110A9987763B
:205060000000008000000000000000000000000000000000000000000000000000000000B0
:20508000000000000000000000000000000000000000000000000000000000000000000010
:2050A0000000000000000000000000000000000000000000000000000000000000000000F0
:2050C0000000000000000000000000000000000000000000000000000000000000000000D0
:2050E0000000000000000000000000000000000000000000000000000000000000000000B0
:2058000000050300000202000002020085A0B30000000000000000000000000000000000A0
:20582000000000000000000000000000000000000000000000000000000000000000000068
:20584000000000000000000000000000000000000000000000000000000000000000000048
:20586000000000000000000000000000000000000000000000000000000000000000000028
:20588000000000000000000000000000000000000000000000000000000000000000000008
:2060000000D00000002804010000011100000132000000031551F09C000015AB0000000089
:2060200002DB00F300000000010000000000000002DB00F3000000000100000000000000BE
:2060400002DB00F3000000000400000000000000030300F300000000011000000000000062
:20606000000000000000000000000000000000000000000000000000000000000000000020
:20608000000000000000000000000000000000000000000000000000000000000000000000
:2060A0000000000000000000000000000000000000000000000000000000000000000000E0
:2060C0000000000000000000000000000000000000000000000000000000000000000000C0
:2060E0000000000000000000000000000000000000000000000000000000000000000000A0
:2061000001A0000000240401000001330000013300000007154BF0A8000015B30000000086
:20612000051401E7000000000400000200000000051401E700000000040000020000000051
:20614000051401E700000000040000020000000006070514000000000210001000000000F0
:2061600000000000000000000000000000000000000000000000000000000000000000001F
:206180000000000000000000000000000000000000000000000000000000000000000000FF
:2061A0000000000000000000000000000000000000000000000000000000000000000000DF
:2061C0000000000000000000000000000000000000000000000000000000000000000000BF
:2061E00000000000000000000000000000000000000000000000000000000000000000009F
:20620000027000000024060100000155000001420000000B154BF0D0000015C20000000046
:20622000079E02DB000000000400010000000000079E02DB00000000040001000000000050
:20624000079E02DB000000000400010000000000090B079E000000000310011000000000DA
:2062600000000000000000000000000000000000000000000000000000000000000000001E
:206280000000000000000000000000000000000000000000000000000000000000000000FE
:2062A0000000000000000000000000000000000000000000000000000000000000000000DE
:2062C0000000000000000000000000000000000000000000000000000000000000000000BE
:2062E00000000000000000000000000000000000000000000000000000000000000000009E
:206300000340000000240801000001770000014E0000000F15408188000015CE00000000F6
:206320000A2805140000000004000200000000000A280514000000000400020000000000BB
:206340000A2805140000000004000200000000000C0F0A2800000000041002100000000079
:2063600000000000000000000000000000000000000000000000000000000000000000001D
:206380000000000000000000000000000000000000000000000000000000000000000000FD
:2063A0000000000000000000000000000000000000000000000000000000000000000000DD
:2063C0000000000000000000000000000000000000000000000000000000000000000000BD
:2063E00000000000000000000000000000000000000000000000000000000000000000009D
:2064000003A80000002409010000018800000159000000111541F140000015D9000000003A
:206420000D9108910000000006000300000000000CDA089100000000060003000000000094
:206440000B6D08910000000006000300000000000D910B6D000000000510031000000000E4
:2064600000000000000000000000000000000000000000000000000000000000000000001C
:206480000000000000000000000000000000000000000000000000000000000000000000FC
:2064A0000000000000000000000000000000000000000000000000000000000000000000DC
:2064C0000000000000000000000000000000000000000000000000000000000000000000BC
:2064E00000000000000000000000000000000000000000000000000000000000000000009C
:2065000004B0000000241702000002AA00000160000000171540F1D4000015E00000000057
:20652000123F0AF3000000000600040000000000123F0AF3000000000600040000000000AB
:20654000123F0AF3000000000600040000000000123F0E99000000000610041000000000C1
:2065600000000000000000000000000000000000000000000000000000000000000000001B
:206580000000000000000000000000000000000000000000000000000000000000000000FB
:2065A0000000000000000000000000000000000000000000000000000000000000000000DB
:2065C0000000000000000000000000000000000000000000000000000000000000000000BB
:2065E00000000000000000000000000000000000000000000000000000000000000000009B
:206600000000000000240D01000002CC00000160000000191541C1A8000015E0000000004C
:20662000CC3C7BC7000000000700040000000000CC3C7BC7000000000700040000000000B0
:20664000CC3C7BC7000000000700040000000000CC3C7BC700000000070004000000000090
:2066600000000000000000000000000000000000000000000000000000000000000000001A
:206680000000000000000000000000000000000000000000000000000000000000000000FA
:2066A0000000000000000000000000000000000000000000000000000000000000000000DA
:2066C0000000000000000000000000000000000000000000000000000000000000000000BA
:2066E00000000000000000000000000000000000000000000000000000000000000000009A
:206700000000000000240E01000002DD000001600000001B154151C8000015E00000000087
:20672000DE2B9B84000000000700050000000000DE2B9B84000000000700050000000000F1
:20674000DE2B9B84000000000700050000000000DE2B9B84000000000700050000000000D1
:20676000000000000000000000000000000000000000000000000000000000000000000019
:206780000000000000000000000000000000000000000000000000000000000000000000F9
:2067A0000000000000000000000000000000000000000000000000000000000000000000D9
:2067C0000000000000000000000000000000000000000000000000000000000000000000B9
:20700000003A000000060C180000023200000001153720CC000015AB0000000000000000DF
:2070200020F50D2F00000000010000000000000020F50D2F000000000100000000000000AC
:2070400020F50D2F00000000010000000000000020F50D2F0000000001000000000000008C
:20706000000000000000000000000000000000000000000000000000000000000000000010
:207080000000000000000000000000000000000000000000000000000000000000000000F0
:2070A0000000000000000000000000000000000000000000000000000000000000000000D0
:2070C0000000000000000000000000000000000000000000000000000000000000000000B0
:2070E000000000000000000000000000000000000000000000000000000000000000000090
:20710000007800000002C58B0000023200000001152D202C000015AB000000000000000022
:2071200056F91B7700000000020000000000000056F91B7700000000020000000000000089
:2071400056F91B7700000000020000000000000056F91B7700000000020000000000000069
:2071600000000000000000000000000000000000000000000000000000000000000000000F
:207180000000000000000000000000000000000000000000000000000000000000000000EF
:2071A0000000000000000000000000000000000000000000000000000000000000000000CF
:2071C0000000000000000000000000000000000000000000000000000000000000000000AF
:2071E00000000000000000000000000000000000000000000000000000000000000000008F
:2072000000F00000000142850000023F00000003152B2030000015B8000000000000000015
:20722000B546493E000000000200010000000000B546493E00000000020001000000000044
:20724000B546493E000000000200010000000000B546493E00000000020001000000000024
:2072600000000000000000000000000000000000000000000000000000000000000000000E
:207280000000000000000000000000000000000000000000000000000000000000000000EE
:2072A0000000000000000000000000000000000000000000000000000000000000000000CE
:2072C0000000000000000000000000000000000000000000000000000000000000000000AE
:2072E00000000000000000000000000000000000000000000000000000000000000000008E
:20730000016800000000C1830000024E0000000515252060000015C70000000000000000D5
:20732000FFFF8954000000000400020000000000FFFF89540000000004000200000000008B
:20734000FFFF8954000000000400020000000000FFFF89540000000004000200000000006B
:2073600000000000000000000000000000000000000000000000000000000000000000000D
:207380000000000000000000000000000000000000000000000000000000000000000000ED
:2073A0000000000000000000000000000000000000000000000000000000000000000000CD
:2073C0000000000000000000000000000000000000000000000000000000000000000000AD
:2073E00000000000000000000000000000000000000000000000000000000000000000008D
:2074000001E000000000C10200000260000000071529209400002C590000000000000000E8
:20742000FFFF2BF2000000000400030000000000FFFF2BF200000000040003000000000008
:20744000FFFF2BF2000000000400030000000000FFFF2BF2000000000400030000000000E8
:2074600000000000000000000000000000000000000000000000000000000000000000000C
:207480000000000000000000000000000000000000000000000000000000000000000000EC
:2074A0000000000000000000000000000000000000000000000000000000000000000000CC
:2074C0000000000000000000000000000000000000000000000000000000000000000000AC
:2074E00000000000000000000000000000000000000000000000000000000000000000008C
:2075000000000000000000000000000000000000000000000000000000000000000000006B
:2075200000000000000000000000000000000000000000000000000000000000000000004B
:2075400000000000000000000000000000000000000000000000000000000000000000002B
:2075600000000000000000000000000000000000000000000000000000000000000000000B
:207580000000000000000000000000000000000000000000000000000000000000000000EB
:2075A0000000000000000000000000000000000000000000000000000000000000000000CB
:2075C0000000000000000000000000000000000000000000000000000000000000000000AB
:2075E00000000000000000000000000000000000000000000000000000000000000000008B
:2076000000000000000000000000000000000000000000000000000000000000000000006A
:2076200000000000000000000000000000000000000000000000000000000000000000004A
:2076400000000000000000000000000000000000000000000000000000000000000000002A
:2076600000000000000000000000000000000000000000000000000000000000000000000A
:207680000000000000000000000000000000000000000000000000000000000000000000EA
:2076A0000000000000000000000000000000000000000000000000000000000000000000CA
:2076C0000000000000000000000000000000000000000000000000000000000000000000AA
:2076E00000000000000000000000000000000000000000000000000000000000000000008A
:20770000000000000000000000000000000000000000000000000000000000000000000069
:20772000000000000000000000000000000000000000000000000000000000000000000049
:20774000000000000000000000000000000000000000000000000000000000000000000029
:20776000000000000000000000000000000000000000000000000000000000000000000009
:207780000000000000000000000000000000000000000000000000000000000000000000E9
:2077A0000000000000000000000000000000000000000000000000000000000000000000C9
:2077C0000000000000000000000000000000000000000000000000000000000000000000A9
:2077E000000000000000000000000000000000000000000000000000000000000000000089
:20780000003A000062330503096558083280800D7FC360248010FF90000000180000000087
:207820000D2F00D20000000002000000000000000D2F00D200000000020000000000000028
:207840000D2F00D20000000002000000000000000D2F00D200000000020000000000000008
:20786000000000000000000000000000000000000000000000000000000000000000000008
:207880000000000000000000000000000000000000000000000000000000000000000000E8
:2078A0000000000000000000000000000000000000000000000000000000000000000000C8
:2078C0000000000000000000000000000000000000000000000000000000000000000000A8
:2078E000000000000000000000000000000000000000000000000000000000000000000088
:207900000078040062330906126558103280801D7FC780245010FF900000000B0000000035
:207920001B7701B7092700A402000002000000001B7701B7092700A4020000020000000003
:207940001B7701B7092700A402000002000000001B7701B7092700A40200000200000000E3
:20796000000000000000000000000000000000000000000000000000000000000000000007
:207980000000000000000000000000000000000000000000000000000000000000000000E7
:2079A0000000000000000000000000000000000000000000000000000000000000000000C7
:2079C0000000000000000000000000000000000000000000000000000000000000000000A7
:2079E000000000000000000000000000000000000000000000000000000000000000000087
:207A000001680100648718103465582F648120567FD680342010FF900000000300000000A3
:207A2000602105CB124F0149030A010000000000602105CB124F0149030A0106000000002C
:207A4000602105CB124F0149030A010A00000000602105CB124F0149030A01000000000008
:207A6000000000000000000000000000000000000000000000000000000000000000000006
:207A80000000000000000000000000000000000000000000000000000000000000000000E6
:207AA0000000000000000000000000000000000000000000000000000000000000000000C6
:207AC0000000000000000000000000000000000000000000000000000000000000000000A6
:207AE000000000000000000000000000000000000000000000000000000000000000000086
:207B000001C2030065A91E134065583B7581706B7FDC20442010FF9000902209000000001E
:207B2000FFFFFFFF0DBB00A40405020500000000FFFFFFFF0DBB00A4040502050000000055
:207B4000FFFFFFFF0DBB00A40405020500000000FFFFFFFF0DBB00A4040502050000000035
:207B6000000000000000000000000000000000000000000000000000000000000000000005
:207B80000000000000000000000000000000000000000000000000000000000000000000E5
:207BA0000000000000000000000000000000000000000000000000000000000000000000C5
:207BC0000000000000000000000000000000000000000000000000000000000000000000A5
:207BE000000000000000000000000000000000000000000000000000000000000000000085
:207C000001E0010066CA201645655840958180727FDE00442010FF90000000020000000070
:207C2000FFFFFFFF0EA600AF0500030500000000FFFFFFFF0EA600AF05000305000000006C
:207C4000FFFFFFFF0EA600AF0500030500000000FFFFFFFF0EA600AF05000305000000004C
:207C6000000000000000000000000000000000000000000000000000000000000000000004
:207C80000000000000000000000000000000000000000000000000000000000000000000E4
:207CA0000000000000000000000000000000000000000000000000000000000000000000C4
:207CC0000000000000000000000000000000000000000000000000000000000000000000A4
:207CE000000000000000000000000000000000000000000000000000000000000000000084
:207D0000000000000000000000000000000000000000000000000000000000000000000063
:207D2000000000000000000000000000000000000000000000000000000000000000000043
:207D4000000000000000000000000000000000000000000000000000000000000000000023
:207D6000000000000000000000000000000000000000000000000000000000000000000003
:207D80000000000000000000000000000000000000000000000000000000000000000000E3
:207DA0000000000000000000000000000000000000000000000000000000000000000000C3
:207DC0000000000000000000000000000000000000000000000000000000000000000000A3
:207DE000000000000000000000000000000000000000000000000000000000000000000083
:207E0000000000000000000000000000000000000000000000000000000000000000000062
:207E2000000000000000000000000000000000000000000000000000000000000000000042
:207E4000000000000000000000000000000000000000000000000000000000000000000022
:207E6000000000000000000000000000000000000000000000000000000000000000000002
:207E80000000000000000000000000000000000000000000000000000000000000000000E2
:207EA0000000000000000000000000000000000000000000000000000000000000000000C2
:207EC0000000000000000000000000000000000000000000000000000000000000000000A2
:207EE000000000000000000000000000000000000000000000000000000000000000000082
:207F0000000000000000000000000000000000000000000000000000000000000000000061
:207F2000000000000000000000000000000000000000000000000000000000000000000041
:207F4000000000000000000000000000000000000000000000000000000000000000000021
:207F6000000000000000000000000000000000000000000000000000000000000000000001
:207F80000000000000000000000000000000000000000000000000000000000000000000E1
:207FA0000000000000000000000000000000000000000000000000000000000000000000C1
:207FC0000000000000000000000000000000000000000000000000000000000000000000A1
:207FE000000000000000000000000000000000000000000000000000000000000000000081
:00000001FF
